:100000000C94E2000C94FF000C94FF000C948E0200
:100010000C94FF000C94FF000C94FF000C94FF0064
:100020000C94FF000C94FF000C94FF000C94FF0054
:100030000C94FF000C9479020C94FF000C94FF00C8
:100040000C942F020C94FF000C94FF000C94FF0002
:100050000C94FF000C94FF000C94FF000C94FF0024
:100060000C94FF000C94FF00000000002300260009
:10007000290000000008000201000003040700003E
:100080000000000000000000000000000000000070
:1000900000000000000000000000005131000000DE
:1000A0005A5341573200004358444534330000202E
:1000B000564654523500004E42484759360000001B
:1000C0004D4A55373800002C4B494F303900002E2F
:1000D0002F4C3B503A00002F0000002D0000000084
:1000E0000D000000000000000000000008000031CA
:1000F0000034372E0000302C323536381B00002BF0
:10010000332D2A390000000000000000000000002C
:1001100000000000000000000000000000000000DF
:1001200000000000000000000000000000000000CF
:1001300000000000000000000000000000000000BF
:1001400000000000000000000000000000000000AF
:100150002F00000000000000000000000000000070
:100160000D00000000000000000000000000000082
:10017000000000000000000000000000000000007F
:1001800000000000000000000000250028002B00F7
:1001900000000000240027002A00040404040404D2
:1001A0000404020202020202030303030303010226
:1001B00004081020408001020408102001020408F5
:1001C0001020170411241FBECFEFD8E0DEBFCDBF33
:1001D00021E0A0E0B1E001C01D92AF30B207E1F72D
:1001E00010E0C2EED0E004C02197FE010E942D0471
:1001F000C13ED107C9F70E949B020C9433040C94B2
:100200000000833081F028F4813099F08230A9F029
:1002100008958730A9F08830C9F08430B1F4809116
:1002200080008F7D03C0809180008F778093800055
:10023000089584B58F7784BD089584B58F7DFBCFF5
:100240008091B0008F778093B00008958091B000C6
:100250008F7DF9CFCF93DF93282F30E0F901EE584F
:10026000FF4F8491F901E255FE4FD491F901E65612
:10027000FE4FC491CC23A1F081110E940101EC2F0B
:10028000F0E0EE0FFF1FE859FF4FA591B491EC91FC
:10029000ED2381E090E009F480E0DF91CF910895B3
:1002A00080E090E0FACF1F93CF93DF93282F30E0C8
:1002B000F901EE58FF4F8491F901E255FE4FD491B8
:1002C000F901E656FE4FC491CC23A9F0162F8111F7
:1002D0000E940101EC2FF0E0EE0FFF1FEA57FE4FE6
:1002E000A591B4918FB7F894EC91111108C0D095F5
:1002F000DE23DC938FBFDF91CF911F910895DE2B1A
:10030000F8CFCF93DF939C013327F901E255FE4FDD
:10031000449126563E4FF90124912223C1F030E04A
:10032000220F331FF901E057FE4FC591D491F90117
:10033000EA57FE4FA591B4913FB7F8942881E42F76
:10034000E0952E2328832C91E223EC933FBF61E0BC
:10035000DF91CF910C945301AC019C013327F9013B
:10036000E255FE4F949126563E4FF90124912223E7
:1003700099F030E0220F331FF901E057FE4FA591AD
:10038000B491F901EA57FE4F259134918FB7F89453
:10039000EC91E92BEC938FBF60E0842F0C94530118
:1003A0001F93CF93DF9380910B0190910C010E94DA
:1003B000810180910D0190910E010E94810183ECD9
:1003C00090E00197F1F780910B010E942A010197BB
:1003D000D1F38FE090E00197F1F780910B010E943B
:1003E0002A01892BD1F3D8E011E0C0E080910B0104
:1003F0000E942A010197D1F380910D010E942A01E8
:10040000019709F4C12B80910B010E942A01892BCD
:10041000D1F3110FD15051F780910B010E942A01A5
:100420000197D1F380910B010E942A01892BD1F30E
:1004300080910B010E942A010197D1F380910B0159
:100440000E942A01892BD1F380910B0190910C011C
:100450000E94AC018C2FDF91CF911F9108951F92C4
:100460000F920FB60F9211242F933F938F939F9368
:10047000AF93BF938091050190910601A091070170
:10048000B09108013091040123E0230F2D3758F576
:100490000196A11DB11D2093040180930501909345
:1004A0000601A0930701B09308018091000190918B
:1004B0000101A0910201B09103010196A11DB11D9E
:1004C0008093000190930101A0930201B093030176
:1004D000BF91AF919F918F913F912F910F900FBE40
:1004E0000F901F90189526E8230F0296A11DB11DAD
:1004F000D2CF1F920F920FB60F9211248F939F931A
:1005000084E492EF90938500809384001BB89F91C0
:100510008F910F900FBE0F901F9018951F920F9202
:100520000FB60F921124199B00C01BB80F900FBE7D
:100530000F901F901895789484B5826084BD84B51F
:10054000816084BD85B5826085BD85B5816085BDCE
:1005500080916E00816080936E0010928100809186
:10056000810082608093810080918100816080930E
:100570008100809180008160809380008091B10033
:1005800084608093B1008091B00081608093B0005E
:1005900080917A00846080937A0080917A008260F2
:1005A00080937A0080917A00816080937A008091B4
:1005B0007A00806880937A001092C100F8948FEFDF
:1005C0008AB91BB880910D0190910E010E948101A2
:1005D00080910B0190910C010E948101CBEAD4E043
:1005E000CE010197F1F780910B0190910C010E94CF
:1005F000AC012197F1F780910D0190910E010E94BD
:10060000AC0183E290E00197F1F780910B019091AA
:100610000C010E94810180910B010E942A01019727
:10062000D1F3D8E0C1E09FEF092F10E020910D0138
:1006300030910E01892F8170F82E90FF89C0C90179
:100640000E94810180910B010E942A01892BD1F324
:1006500080910B010E942A010197D1F38F2D8C27E5
:1006600015950795902FD15009F070C080910D011C
:1006700090910E01FC1609F46FC00E9481018091D7
:100680000B010E942A01892BD1F380910B010E945A
:100690002A010197D1F380910D0190910E010E94E2
:1006A000810183EC90E00197F1F780910B010E94AA
:1006B0002A010197D1F380910B010E942A01892B15
:1006C000D1F380910D010E942A01892BA1F3809121
:1006D0000B0190910C010E94AC010E94D0010E947C
:1006E000D0012198299A80916800816080936800E8
:1006F00080916B00836080936B0010928000109259
:1007000081008091810085608093810084E492EF74
:10071000909385008093840080916F008160809326
:100720006F0078941BB800E010E0C4E4D2EFFF241F
:10073000F3940E94D0019FEF980F9E3FA0F010927B
:100740000A011092090100E010E0F3CFC82F6CCF2E
:10075000C9010E94AC0176CF0E94AC0190CF11E09C
:10076000E8CF01E0E6CF803E19F4F0920A01E1CF34
:10077000803F19F4F0920901DCCF20910A01909199
:100780000901222319F110920A01992319F01092FC
:100790000901CFCFEAE8823799F060F4E8E88B36B8
:1007A00079F0E0E087FD0CC0E82FF0E0EA5FFE4F53
:1007B000E49106C0E5E9843719F0EBE8853789F75D
:1007C000D0938500C0938400EBB9B3CFE0E087FD00
:1007D00005C0E82FF0E0EA57FF4FE491992351F06C
:1007E00010920901823109F4AFCF843109F0A1CF11
:1007F00000E09FCF823109F4B2CF843109F4B1CF48
:10080000EE2309F496CF112319F0E4FF0EC0E05156
:10081000002329F080EC8E0F803208F4E82FD0936B
:100820008500C0938400E058CFCFE05FF1CFCF9335
:10083000DF93CBE0D1E082E190E09983888383E18C
:1008400090E09B838A8382E190E00E9481018A810B
:100850009B81DF91CF910C948101EE0FFF1F0590DA
:0A086000F491E02D0994F894FFCF05
:00000001FF
